:020000041000EA
:1000000000B5324B212058609868022188439860DF
:10001000D860186158612E4B002199600221596106
:100020000121F02299502B49196001219960352056
:1000300000F044F80222904214D00621196600F024
:1000400034F8196E01211966002018661A6600F04E
:100050002CF8196E196E196E052000F02FF8012189
:100060000842F9D1002199601B49196000215960AB
:100070001A491B48016001219960EB211966A021F2
:10008000196600F012F800219960164914480160C1
:100090000121996001BC002800D000471248134993
:1000A000086003C880F30888084703B5996A0420EC
:1000B0000142FBD001200142F8D103BD02B5186610
:1000C0001866FFF7F2FF186E186E02BD00000240BE
:1000D000000000180000070000035F00212200005C
:1000E000F4000018222000A00001001008ED00E03C
:1000F00000000000000000000000000074B24E7A12
:1001000000200420F7010010C3010010C5010010F9
:10011000C1010010C1010010C1010010C101001097
:10012000C1010010C1010010C1010010C701001081
:10013000C1010010C1010010C9010010CB01001065
:10014000CD010010CD010010CD010010CD01001037
:10015000CD010010CD010010CD010010CD01001027
:10016000CD010010CD010010CD010010CD01001017
:10017000CD010010CD010010CD010010CD01001007
:10018000CD010010CD010010CD010010CD010010F7
:10019000CD010010CD010010CD010010CD010010E7
:1001A000CD010010CD010010CD010010CD010010D7
:1001B000CD010010CD010010CD010010CD010010C7
:1001C00000BE00BE00BE00BE00BE00BEEFF3058054
:1001D000103800BEF2EB8871044100102441001079
:1001E0003402001090A31AE700201F49086006C8D7
:1001F00081F3088810471D48006800282FD10DA4FE
:100200000ECC002902D000F012F8F9E71849194A7B
:10021000002000E001C19142FCD1174988471749ED
:1002200088471749884700BEFDE701C901C29A42C5
:10023000FBD3704724410010C0000020F8080020C4
:100240005C49001000000420000004205C490010FC
:10025000001004200010042000000000704709482E
:1002600001F0E0FF0047000008ED00E0000000D0D2
:10027000F80800204C0F002069200010090300102E
:10028000912100105756000006005250ABB3605346
:100290008435001006005250861C0302943500106D
:1002A000060052505422A29D9C3500100500525069
:1002B000DE65F4685C490010F8B5C0460648074999
:1002C000091A8B10C90FC91810B5491003D0044B77
:1002D000002B00D0984710BDF8080020F808002037
:1002E00000000000054B10B5002B03D00449054861
:1002F00000E000BFFFF7E2FF10BDC04600000000B5
:10030000FC0D0020B0340010F0B5DE4645465746DF
:100310004E46E0B5DF4CE04BA5440C200693D024BC
:1003200000F0DCFB802324065B0163620B20A361E9
:1003300000F0D4FB80231B0163620520A36100F061
:10034000CDFB20230022A3620121052000F0B4FB95
:10035000062000F0C3FB40230022A36201210620F7
:1003600000F0AAFBCD49CE4802F08AFA03210E2004
:1003700000F08AFB03210F2000F086FB0022012100
:100380000E2000F099FB002201210F2000F094FBC9
:1003900000F004FAC34B11A811930023129300F04C
:1003A000F1F980220021D20024A802F08DF811A9D1
:1003B00024A800F01FFA012002F0BEF9BA4AC302D5
:1003C0001340BA4A13AD1A4308922A00B84B07905B
:1003D00013CB13C213CB13C2002403CB03C222B22C
:1003E000012108CD24A8083400F0E2FA402CF6D10F
:1003F00000253F3C7823002200210194009524A889
:1004000000F044FA3523352200210194009324A8FA
:10041000433300F03BFA122312220021019400938F
:1004200024A8163300F032FA28231222282101943E
:10043000009524A800F02AFA11A924A800F0DAF9FE
:10044000079AA02193019C4602939A4BC9050993F0
:10045000994B94400593FFAB94330393974B8025BE
:100460000A93974B61440D931BAB9A46954B894673
:100470000B93954B954E0C93D0231B069B460494EF
:100480006D04059A0CA913688C46013313604B4622
:10049000099A1A6086234A461B01634453608C4BB9
:1004A00093604B46089ADA608A4B029A9C466244F3
:1004B00013682B42FCD1079802F050F9A022864B1A
:1004C0000499D205D150854B029A9C466244136828
:1004D0002B42FCD1A022804B0499D205D1507F4BF6
:1004E000029A9C46624413682B42FCD10CAA8623D4
:1004F00094461B0163443100180002F0DFFD0CAA92
:100500009446774B010063441C00764B00276344FC
:100510009846002803D10DE01434A0450AD01322D8
:10052000200002F09BFD31000020E77402F0C6FDC0
:10053000011EF1D15B4601225B685B091A409046BF
:100540005A46526801221A4200D199E080235A4645
:100550005B01536180235A461B019361059B052172
:10056000186801F091FE0A220FA9040002F018FA9F
:1005700000220121069B24A800F01AFA08220FABE2
:10058000012124A800F014FA11A924A800F032F9DE
:100590005B4601225B685B091A4200D1A4E05B461E
:1005A00001225B689B091A4266D18022039CD2001B
:1005B0000021200001F088FF200011A900F01AF9A5
:1005C00080235A465B0193614346002B5DD0802314
:1005D0001B0153610CA98C4651460A9B60461A6860
:1005E0000CAC283A93009B183D4A9B006244D218F9
:1005F0000A6052460B99B046516039491A0061446D
:100600008C4651461432624484468A6034491A004A
:1006100061448C4651463C326244CA605246A4460C
:1006200006992F4811611A00604484469132504661
:10063000FF326244A4464261294A28336244944608
:10064000634483611BAB9A461F0000240C9A039EEF
:10065000C161026222B20121300008CF083400F0EB
:10066000A7F9482CF6D1039811A900F0C3F8FA2095
:10067000C000464600F080FFC82000F07DFF00E784
:1006800080235A465B01936164E780231B019361D9
:10069000A0E7C046D4A0FFFFC8340010801A0600AF
:1006A00070030020007F0007FDFF1FFF31801F0047
:1006B000683E0010F0350010940C0020900C0020D3
:1006C000B4340010C4340010CC340010B034001026
:1006D00050C3000010000050440400000C00005003
:1006E000D8100000F85E0000200009320FA90CAC01
:1006F00002F056F9A4460698FFAB94331860FFAB9E
:10070000983318600A9B03991A681D4C01329300B4
:100710009B181B4A9B006244D2186444CA601A00AA
:100720006746A44614326244BC460A61144A283320
:100730006244944663444B610D9B0024CB61FFAB44
:1007400094331F0088608861039322B2012108CF8F
:1007500024A8083400F02CF9402CF6D111A924A8C3
:1007600000F048F8CD2100200A9C49002368293375
:10077000DA0F994242415242134023600FE7C046CC
:10078000D8100000037842788178D21AC3780132F9
:100790005B1A0133534343607047C046F0B5474688
:1007A000CE4680B58BB003AC2200104B802723CB04
:1007B00023C223CB23C21B880026138026236B442D
:1007C00099460B4B02AD984623782F706B702A0028
:1007D00002233C2140460096013402F079F84C4552
:1007E000F2D10BB0C0BCB946B046F0BDB03F00106E
:1007F00070030020F0B557464E464546DE4621239D
:10080000E0B587B004AC23700B78834663704B78F7
:100810008A46A3702223E3704B880027A380162307
:100820006B44994680239846174E03AD4246237881
:100830002A706B702A0002233C213000009701349B
:1008400002F046F84C45F1D153465B685D1C280028
:10085000984601F01BFE40230400424659460370AF
:10086000013001F037FE2B0022003C2130000097C0
:1008700002F02EF8200001F01BFE07B0F0BCBB46D2
:10088000B246A946A046F0BD70030020F0B545462B
:1008900057464E46DE46E0B587B010AC80CC267891
:1008A0005C1AE51764196C40A046BC1AE517059759
:1008B00067196F40E5172C1B6C40A4460097012474
:1008C0008B4200DC64420294059C94426BDD01245F
:1008D00003944446009DD717651B0724A146063C98
:1008E000A346644601930494002E24D14C463C4018
:1008F000A418E410E4016418065DB4464E461640A0
:10090000B2465E4653469E40B246664653469E43B6
:10091000019B06558B4238D0049B6C00A3422CDD12
:10092000039B45449C466244D717DFE7039B45443D
:100930009C466244D7174C463C40A418E410E4019E
:100940006418065DB4464E461640B2465E465346AF
:100950009E40B246664653461E43019B0655994249
:100960001DD0049B6C00A342E0DC009BED1A029BAF
:100970009C466144A045DEDBD8E7009BED1A029B54
:100980009C466144A045B1DBCAE7059B9342C3D1B5
:1009900007B0F0BCBB46B246A946A046F0BD059BD9
:1009A0009A42DED1F4E701246442039491E7C04601
:1009B000F0B5DE4657464E464546E0B585B0782947
:1009C0004DDC382A4BDC1C78002C48D00725D61784
:1009D0003540AA18D210D2010292294A0392294A1C
:1009E00093462AE0303C092C40D8FF242240153A97
:1009F0005C46D200A45C5A44A24654781779A146BA
:100A000094785679A046D4789579A446D279019203
:100A10005446029A8A1884544C46821854704446AC
:100A200094706446D470019C177156719571D4719D
:100A30001C78083109B2002C11D001337829F7DC79
:100A40000326039D22002D5D3540022D01D1203A61
:100A5000D4B22500413D192DC4D8403AC8E705B0AD
:100A6000F0BCBB46B246A946A046F0BD0022002518
:100A70000026002794469046914692460192C7E789
:100A800001400010883E0010094A10B594464024E9
:100A9000830063441A68C00062408034144080229E
:100AA000520113431C60034B9C466044416010BDDF
:100AB00004C0014000400140074B80009C46604458
:100AC0000368C90092000A435A400C231A4080234D
:100AD0005B0103431A60704704C001400123D02228
:100AE0008340120693629361094A40219446830031
:100AF00063441A68C0004A4080311140802252018C
:100B000013431960034B9C460523604443607047C0
:100B100004C0014000400140024B18688007C00F2C
:100B20007047C04600C0064070B5EFF3108C72B637
:100B30000D4D2B68002BFCD0BFF35F8F0724CB0833
:100B4000C618C05C01230C40A3401C0004400342B3
:100B500007D118433070BFF35F8F2C608CF310887F
:100B600070BD100001F018FB2C0100D0F8B547460D
:100B7000CE46884680B5EFF3108C72B6214D2C68B6
:100B8000002CFCD0BFF35F8F9A422CD8D4080727E3
:100B9000055D061901241740BC402C421FD00721D7
:100BA0000127894609E0D408055D06194C4639003D
:100BB0001440A1400C00294211D001329342F2D2DC
:100BC00001204042BFF35F8F00220E4B1A608CF36E
:100BD000108800280FDBC0BCB946B046F8BD2543DD
:100BE00010003570EEE7BFF35F8F00232B608CF3AE
:100BF0001088012040424346002BECD0089801F0B9
:100C0000CBFAC0462C0100D00021044B044ABFF3AC
:100C10005F8F02C39342FAD17047C046000100D0F3
:100C2000800100D0044A1078431CDBB2172B00D996
:100C3000102313707047C046D00200200123834068
:100C4000002904D0034A1360034A13607047034A23
:100C50001360FBE780E200E000E100E080E100E0FB
:100C6000024B10309B688000C058704700ED00E0D8
:100C700070B50D00EFF3108672B60F4A1368002BA3
:100C8000FCD0BFF35F8F0D4B10309B6884001B5965
:100C90000B4A934203D09D4201D001F095FA074BD5
:100CA0009B681D51BFF35F8FBFF35F8F0022024B24
:100CB0001A6086F3108870BD240100D000ED00E0BA
:100CC000CD010010F0B5DE4657464E464546E0B52C
:100CD0000C0083B0EFF3108872B65D4A1368002BE6
:100CE000FCD0BFF35F8F5B4B5B499A680300103306
:100CF0009F00D5598D4239D0A5424AD0574EAA1BE4
:100D00002F2A33D801229246824091464846544ABF
:100D10001268104001904846524A1060BFF35F8F3E
:100D2000EFF305829346002A35D0934201D001F0BB
:100D30004BFA2A0053469A439068844208D175E0E2
:100D40004B005B189B00F3189868A04234D01A003F
:100D5000062151560029F3DA844253D0019B002B1F
:100D600026D04A46404B1A603D4B1A60394B9B686F
:100D7000DD51BFF35F8FBFF35F8F0022344B1A60EA
:100D800088F3108803B0F0BCBB46B246A946A04623
:100D9000F0BD0D00EAE72A0053469A43906884426A
:100DA000D6D1062010561300002809DA0D0031E0D4
:100DB0004A462C4B1A60D9E706201856002822DB39
:100DC00042001118890074188A46A1689960E17977
:100DD000D971062161569971002925DBA488F11A81
:100DE0006405241554440919E0240905490D240219
:100DF0002143998013181D4A9B001178F3189971AB
:100E00001070ABE713005946002914D1FF319171DE
:100E10001749918015490A789A71164A9B1B5B41C4
:100E20005A43120D0A7099E71349E2E7062010565B
:100E300013000028C4DA114A1149D21A083A5002A4
:100E4000400D014399800F4952080A43DA8085E733
:100E5000240100D000ED00E0CD010010D4020020FC
:100E600000E100E080E100E080E200E0480F0020C7
:100E700001BDFFFFAAAA000001BD00000E03002073
:100E800000F0FFFF00F8FFFF70B5EFF305810124CC
:100E90000443EFF3108C72B6214A1368002BFCD088
:100EA000BFF35F8F1F4B05001F4AED1A6D416A4368
:100EB000120D1E4D8900AE6852B27658A6421CD063
:100EC0000621595691421CD012215956914222D0E6
:100ED0001E215956914220D02A215956032491426D
:100EE00010D0134B19781A708171BFF35F8F0022F5
:100EF0000B4B1A608CF3108870BDAB680D4C5C50C6
:100F0000EFE700246100091989005B18FF2199713E
:100F100009499980E5E70124F4E70224F2E7C04695
:100F2000240100D0D4020020AAAA000000ED00E0B5
:100F3000480F0020CD01001001BDFFFF054B064A00
:100F40001360064A136053609360D360136153616A
:100F5000936170478080808000E400E004E400E05A
:100F6000024B9C4661448900016070474000003498
:100F700010B50400FFF756FE01002000FFF7F0FF58
:100F8000FF232371BFF35F8F10BDC04610B504006F
:100F9000FFF748FE01002000FFF7E2FFFF23A380D8
:100FA000BFF35F8F10BDC04683680B4810B5844601
:100FB000614462441201090159189B185C684A682F
:100FC0000120944201D802D00020C0B210BD1A689E
:100FD0000B689A42F9D8F7E7FFFFFF0F0A4B196831
:100FE000EFF3108072B60A68002AFCD0BFF35F8F5F
:100FF0001B68BFF35F8F00221A6080F3108840BF28
:10100000002000217047C046300F0020F8B5574639
:1010100045464E46DE46E0B598460CAB1C780DAB17
:101020001B78070091469A460568002C59D1AC7B85
:10103000002C3BD0660029683619033E89194B788D
:10104000AB73002B00D1EB7300238B704B700B70D4
:101050002D4BE218BB6812019B184A461A604246A3
:101060005A600A9A9A600B9ADA6000238B704B7070
:101070000B706B7B9B46002B26D022006B68594679
:10108000A86898475B465B005B442A68033B0028DE
:1010900012D058469619B070D118D35C002B00D0EE
:1010A00073705B460C706B735C450ED0F0BCBB4636
:1010B000B246A946A046F8BDD3189C709119925D1E
:1010C000002A1CD15B460B706C734A464346387D40
:1010D00000F09EFB051E0AD10E9B002BE6D01D7072
:1010E000E4E7660029683619033E8919B0E75346DC
:1010F000002BF1D12100386800F0A2FDECE75A7016
:101100005B460B706C73E0E7FFFFFF0FF0B5DE4648
:1011100057464E4645460023E0B58BB00893684BD2
:101120008200D45800239B46099000F011FB020076
:101130000B006068EFF3108A72B65646016800290A
:10114000FCD0B246BFF35F8F21684F7B8C46002FE7
:101150002ED0A5685B49A9467918090189444946FA
:101160000868496805000E00AD1A9E41002E5FDD3B
:1011700002000B00099800F04BFB00230022994667
:10118000002306920793002398466368BFF35F8F9E
:101190005A461A608AF310884346002B12D1002861
:1011A000C3D10BB0F0BCBB46B246A946A046F0BDC9
:1011B0000023002299460023069207930023002073
:1011C0009846E2E7089B494618023843C0476268E0
:1011D00005000E00EFF3108A72B61368002BFCD0E6
:1011E000BFF35F8F002E41DB2B00334302D0236916
:1011F000002B56D12368D97B002905D01A684800F6
:1012000041185218033A57709A7B002A00D19F73F5
:10121000DF73E268013FD35D0133D3555B46236141
:101220006368BFF35F8F5A461A608AF310887CE7C1
:10123000002E02D1002D00D09AE70021604600F078
:101240007DFC4B461A685B68069207934B469B6889
:1012500098464B46DB689946E368DB19013B1B78EF
:1012600008931B020343236100208EE72369002BB0
:10127000C0D0069A079B8021521BB34109068B42BE
:1012800002D30122104B52420021049101310391FB
:10129000494601914146200002970091FFF7B6FEB2
:1012A000BCE700F055FA2A00330012184B418021A8
:1012B00009068B42E8D30122034B5242E4E7C046C1
:1012C000140E0020FFFFFF0FFFFFFF7F10B5144C2F
:1012D0006368002B04D00A211248FFF741FE10BDBD
:1012E0002300114A1021206800F044FB032000F085
:1012F00023FA032000F0F4FA03200C4900F042FA2C
:10130000FFF790FC0A4B9C4603232375D0231B0652
:101310001B6860446375074B80006060DC60DAE73F
:101320001C030020300F0020A90F00100D11001029
:1013300040000034140E0020F0B557464E46454696
:10134000DE46E0B585B0019310AB1B780600039331
:1013500000239A46984600927268EFF3108B72B69B
:101360001368002BFCD0BFF35F8F3568AC7B002C7B
:1013700000D16EE067002B683F19033FDB195A78F4
:10138000AA73002A00D1EA73484AA118B268090179
:10139000521800980199106051600E9991600F9950
:1013A000D16042469A705A701A706B7B9946002B36
:1013B00000D16BE022006B684946A86898474B460D
:1013C0005B004B442A68033B002856D04846D71997
:1013D000B870D118D35C002B00D07B704B460C70DA
:1013E0006B734C4553D0F3681B19013B1878736835
:1013F000BFF35F8F42461A608BF310885346002B71
:1014000008D10002204305B0F0BCBB46B246A94655
:10141000A046F0BD039B002B46D00E9B00200F99E9
:10142000984703000B433FD004000D1E1ADA009AC0
:10143000019B121BAB410092019380221206934242
:1014400004D301231A4C5B4200930194039B9A46F8
:1014500082E77368BFF35F8F1C608BF310880120F5
:101460004042D0E700F074F9802200196941120669
:10147000009001919142E9D3E3E7D3189C70D11910
:10148000D25D002A00D05A704B460B706C73307DD1
:10149000009A019B00F0BCF982460028A3D02100ED
:1014A000306800F0CDFB9EE70020ACE7FFFFFF0FA8
:1014B000FFFFFF7FF0B504000D0006267642F71708
:1014C000C64636196F4100B584B08F4214D811D08A
:1014D00000F03EF932003B00121A8B41002B15DC64
:1014E000002B3ED02000290000F03CF904B080BC65
:1014F000B846F0BD8642EBD90026002700F028F957
:1015000032003B00121A8B41002BE9DD00230293CD
:101510000193154B3200009314483B00FFF70CFF7A
:101520000028DFDB00239846BC46114A114F7B6A36
:101530009C4504D8B96A8E42D4D99C45D2D1116851
:10154000EFF3108072B60B68002BFCD0BFF35F8FF7
:101550001368BFF35F8F4146196080F3108820BF86
:10156000E5E7002ABED0D1E7DD0F00101C03002004
:10157000300F00200040054070B5060000F0E8F88C
:10158000FA2204000D00002330000021920000F038
:101590002FFF8023001969411B06994202D30120C5
:1015A00002494042FFF786FF70BDC046FFFFFF7F44
:1015B000F0B5EFF30583CE46474680B505000C0035
:1015C00085B0002B12D02A4A0020536AA34203D3CD
:1015D000926A0130AA4204D305B0C0BCB946B046F5
:1015E000F0BD1B1B5A1E9341D8B2F5E7214E029362
:1015F0000193214B0200009330000B00FFF79CFE8B
:10160000031EE0DD20BF7168EFF3108772B60A6831
:10161000002AFCD0BFF35F8FDAB29446FF22306815
:101620001A40417B61450FD00168894651008846C8
:1016300049469044414403398978002904D13269EC
:10164000934209D1316107E0F1681B0A8A18013A17
:101650001278DBB29A4207D07368BFF35F8F002223
:101660001A6087F31088AEE7614600F0E9FAF3E705
:10167000004005401C030020DD0F0010F0B5EFF323
:101680000582D6464F4646461000C0B51038EFF3E7
:10169000108872B6214C2368002BFCD0BFF35F8FFB
:1016A0000123190081401E4D1F006963AA461D4D8C
:1016B00029601D4D2E78AC463500C5402F402B4289
:1016C00015D053465F6A194B8500EB589F4218D3DB
:1016D0006246174B8E43EB581670BFF35F8F0022A4
:1016E000226088F31088002B06D0984704E0BFF3EF
:1016F0005F8F276088F31088E0BCBA46B146A846E1
:10170000F0BD0C4B92009C46624413681360BFF31B
:101710005F8F0023236088F31088EDE7280100D055
:10172000004005403C700540490F0020340F002068
:10173000980C0020D03F054010B5034B0100180065
:10174000024AFFF7F1F910BD470F0020FC340010EA
:10175000034B596A0A00986A596A8A42FAD170475B
:1017600000400540064A536A9942FCD807D1044B11
:1017700002E05A6A914202D19A6A8242F9D37047D2
:101780000040054070B504000D00EFF3108672B6FE
:101790001A4A1368002BFCD0BFF35F8F002D1BD0BB
:1017A0002000FFF75DFA164981420AD02000FFF7BA
:1017B0005FFA01212000FFF741FA0123A340114AFB
:1017C0001360114BA400E550BFF35F8F00220B4B59
:1017D0001A6086F3108870BD0121A1400A4BA20057
:1017E000D5500A4B20001A788A4305491A70FFF732
:1017F00069FA00212000FFF721FAE5E7280100D06F
:101800007D16001038600540980C0020490F00201C
:10181000F0B54F46D6464646C0B507002B4C616A28
:101820000D00A66A616AA942FAD18B4208D805D098
:101830000120E0BCBA46B146A846F0BDB242F7D995
:10184000EFF3108A72B6224801680029FCD0BFF37A
:101850005F8F0125BD401F491C4C88460978894689
:101860002943C9B28C46414660460870391D89003B
:1018700065630A511849B8004350216A0020294283
:1018800019D0616A0800A66A616A8142FAD18B4266
:1018900019D801D1B24216D8CC450BD00B4B1F2220
:1018A0001D625D6301233A4093400C4A1360434636
:1018B0004A461A700120BFF35F8F0022044B1A6062
:1018C0008AF31088B5E70020F5E7C04600400540E0
:1018D000280100D0490F0020340F002080E200E0F2
:1018E000EFF3108C72B60A490B68002BFCD0BFF3E3
:1018F0005F8F01238340074A0748136202789A43A7
:101900000270BFF35F8F00230B608CF31088704769
:10191000280100D000400540490F002070B50600A6
:101920000D00140000291DD0002A12D073688068B1
:10193000984762006B0012195B193168033A033B48
:10194000002808D08A189570C818CB5C002B0BD1E2
:101950000470280070BDCB189C7088188A5C002A1F
:1019600005D105702000F5E753700470F1E75A7057
:101970000570F7E710B583600023CCB243730133E1
:10198000426004738373C4730068421C012C05D940
:101990000133DBB2137003329C42F9D1FF230B40B9
:1019A0005A00D318C01800230338437010BDC04636
:1019B00070B505000C1E07D0630001681B19033BBE
:1019C000CB185A78002A01D1200070BD5000801831
:1019D0000338091800204E784870210058702800FC
:1019E000FFF79CFF310004002800FFF7E1FF06002D
:1019F000002C20D00028E7D0320021006B68A868B6
:101A000098477200630092191B192968033A033B37
:101A1000002808D08A189470C818CB5C002B00D01E
:101A200053700670D0E7CB189E7088188A5C002A25
:101A300000D05A7004703400C6E7C046F0B557466F
:101A40004546DE464E46E0B50D006F0001687F1941
:101A5000033F0400C85D83B00192CA19002850D02A
:101A600043001B18033BCB185E78B446002E1AD1F6
:101A7000019E002E42D0E67B002E04D073009B19FD
:101A8000CB18033B5D70A37B002B00D1A573E573DE
:101A900000282FD10023537003B0F0BCBB46B246E0
:101AA000A946A046F0BD72006244033A8A185178F4
:101AB000884600215170894659703200010020008B
:101AC000FFF72CFF43468246002B07D05B002168BE
:101AD0004344033BCB185A78002A16D1424651465C
:101AE0002000FFF71BFF2168019BCA19002BC2D100
:101AF0000028CFD043001B18033BCB18002199705E
:101B0000C8E7019B002BB6D1C4E75000801803380A
:101B10000918487883464846487058704146200066
:101B2000FFF7FCFE594680462000FFF741FF414683
:101B300002002000FFF7F2FE8046CFE7F0B55746DF
:101B40004546DE464E46E0B583B00191457B040034
:101B50006F0000687F19033FC15DC219002952D090
:101B60004B005B18033BC3185E78B446002E1CD1B3
:101B7000019E002E44D0E67B002E04D073009B19FA
:101B8000C318033B5D70A37B002B00D1A573E573E5
:101B9000002931D1002328005370617303B0F0BCD9
:101BA000BB46B246A946A046F0BD72006244033A65
:101BB000821850788046002050708146587032005C
:101BC0002000FFF7ABFE43468246002B07D05B00A8
:101BD00021684344033BCB185A78002A17D1424668
:101BE00051462000FFF79AFE019B01002068C219B0
:101BF000002BC0D10029CDD04B005B18033BC3188C
:101C000000209870C6E7019B002BB4D1C2E75000BA
:101C10008018033809184878834648464870587039
:101C200041462000FFF77AFE594680462000FFF724
:101C3000BFFE414602002000FFF770FE8046CEE75F
:101C400070B5050000292CD0437B8B422ED04C0070
:101C500000686418033C0419A278002A21D05300BC
:101C60009B18033BC25CC6188A4202D11BE0002AC3
:101C700008D053009B18033BC3185A788A42F6D108
:101C800062785A70002301222800A3706370FFF766
:101C9000D5FE697B02002800FFF740FE6873012033
:101CA00000E0002070BD63783370EBE7012219007B
:101CB000FFF7C4FEF2E7C04610B50C2082B000F07A
:101CC000B7F9FEF729FF002810D08B4B8B488B49C2
:101CD0008B4A186059609860D960186159619861A1
:101CE000D961186259625A6202B010BD854CA06772
:101CF00000F0A6F90122844B1A60636C012BFCD121
:101D00000322824B1A607F4A936B012BFCD1013373
:101D100001217F4A7F480093043300F037F90523FF
:101D20007D4A009301217D4800F030F97C4B5A68D0
:101D3000FF2A02D8802252005A608022734B6E4CD8
:101D400012011A602169002907D0606900F0C4FA05
:101D5000013043001B18033BFDD2E022704B714859
:101D600019680A40026002221968514001320A4093
:101D7000042102609A681142FCD080216A4A09015C
:101D80001160802252005A60684B2361684B596889
:101D9000FF2900D85A60032201215B4B1A60644A74
:101DA00093681942FCD0E023106803406148036047
:101DB000126803234A40022113405D4A036093687E
:101DC0001942FCD080215C4B0901196080215B4BDA
:101DD0004900516063615A4B5A68FF2A00D8596024
:101DE0008022584B12011A60E169002907D060690E
:101DF00000F072FA013043001B18033BFDD2E023D0
:101E00004F4A11680B4050490B6080214F4B09012C
:101E100019608021394B49005160E3614C4B5A688D
:101E2000FF2A00D8596080224A4B12011A60216AA9
:101E3000002907D0606900F04FFA013043001B18F9
:101E4000033BFDD2E023424A11680B4042490B603C
:101E50008021424B0901196080235B00536080227E
:101E6000264BD20223623E4B5968914200D25A60FF
:101E700080223C4B12011A60616A002907D0606918
:101E800000F02AFA013043001B18033BFDD2E02387
:101E9000334A11680B4034490B608021334B0901F0
:101EA00019608023DB025360154B6362304B5A6824
:101EB000FF2A02D8802252005A6080222D4B120144
:101EC0001A60A169002907D0606900F005FA0130A5
:101ED00043001B18033BFDD2E023254A11680B4049
:101EE00025490B608021254B0901196080235B0087
:101EF0005360124BA361F7E6F8080020006CDC0287
:101F00001BB70000008000403CB0004030B00040F3
:101F1000002F685900800240008C864700C00240B4
:101F2000308000403090004030A00040001BB700DF
:101F30003C8000403C9000403CA00040405973076A
:101F40005480004054B000405490004054A00040E1
:101F50006080004060B000406090004060A00040A1
:101F60006C8000406CB000406C9000406CA0004061
:101F70004880004048B000404890004048A00040E1
:101F8000014B8000C0587047F8080020F8B50400E5
:101F900022481E0017000D0000F09EF901003800D5
:101FA00000F09AF9069B36041B031E432368002B9E
:101FB00022DB1B4B1B49E3185A1E934180229201DE
:101FC00094465B421B0B184A1B0363441360174A79
:101FD00013601F008A689743FBD1C022231D920122
:101FE0001A4321232560A06013602368002BFCDACC
:101FF0000823E6601360F8BD3F2322681340AB421C
:10200000D7D1A3681B051B0D8342D2D1EE22E36812
:10201000D2021340B342CCD1EDE7C046001BB7005B
:102020000040FDBF00C0004000E0004000F0004064
:102030008023024A9B000343D3627047008005401F
:10204000AA23064A1B0113602F230549D360054BC1
:1020500019605368002BFCDA7047C046004002400C
:1020600000B0FA00006002402C4B2D4A70B51A6097
:102070002C4A2D4B2D491A6014008B689C43FBD1D0
:102080002B4D2C4EB54208D2013E761BB60808CD2A
:10209000984723000134B342F9D1FFF70DFE264AD9
:1020A000214B1A60214A9368DB43DB01DD09002BD9
:1020B000F9D14022214B224C224E9A675A671A6767
:1020C000DA66B44208D223682000002B20D00834FE
:1020D000FEF75CFFB442F6D31B4C1C4EC022B16825
:1020E000200000F0F7F9B460FEF78EFDFEF726FF42
:1020F000FFF7ECF8164C174EB44208D2013E361BDF
:10210000B60808CC98472B0001359E42F9D170BD26
:102110000834FEF72DFFB442D5D3DDE700E00040E0
:10212000BFCDFBFEFE7F3C0000F0004000C0004041
:10213000E0080020F0080020FFFFFF0100F0014050
:10214000D8080020E00800200000002000ED00E09A
:10215000F0080020F808002000BEFDE7094A03004F
:102160001068002805D00849C3188B4207D81360AF
:10217000704706480449C31810608B42F7D9012004
:102180004042F5E7F40D0020000004204C0F002031
:1021900010B5FFF7E1FFC0460FB400B5084883B0A3
:1021A00000F034FA049B002B07D005A91800019118
:1021B00000F018F8034800F029FA0120FFF7CCFFDF
:1021C000203500103035001010B50148FFF7E4FF4E
:1021D0003435001010B5002800D110BD00F0CAF948
:1021E000FBE7C04610B5094A0300146884B0002C10
:1021F00008D0012200910648524203A9A0470120BD
:1022000004B010BD00F002FA0020F9E7F80D00203C
:10221000D521001001480421014B1847500300202C
:1022200045220010142310B50100188804331B88C0
:10223000984710BD162310B50100188802331B887B
:10224000984710BDF8B54746CE4680B50F1E19D049
:1022500014239946043304000025012698464B4672
:102260001888434621681B88984701C4431E98413B
:10227000013540420640AF42F1D13000C0BCB94602
:10228000B046F8BD0126F8E7124A936F9B0815D2B5
:102290009066D166002905D0FFE7FFE7FFE7516FA1
:1022A000106F704704B580210906C21751400028FD
:1022B00000D0C84301F0ECF8002104BDF0B5146E65
:1022C000556E576F166FFFF7E3FF14665566576735
:1022D0001667F0BD000000D0114A936F9B0813D21F
:1022E00010665166002905D0FFE7FFE7FFE7516F51
:1022F000106F704704B5002801D00020C04301F0E2
:10230000C7F8002104BDC046F0B5146E556E576F76
:10231000166FFFF7E5FF1466556657671667F0BD41
:10232000000000D010B50148FFF736FF403500101F
:10233000132370B51D78012D15D010DD1B48FFF754
:1023400079FF1B4C01008022200000F0C3F8022D11
:1023500006D01848FFF766FF174B186070BD144C85
:10236000164BA364F5E7164B114C23606360A36022
:10237000E36023616361A361E36123626362A3623B
:10238000E36223636363A363E36323646364A3641B
:10239000E36423656365A365E36523666366A366FB
:1023A000E36623676367A367E367D9E753440000E5
:1023B000200A00204C3300002C0E0020C523001002
:1023C0002523001007B5604601880A0A0230DF2A7B
:1023D000FAD1C9B2820804D30288408800041043AD
:1023E00000E00068014A5050039007BD200A002019
:1023F00051434343C9188C46110C83B24B4310B46C
:10240000040C614392B280B2504362431C041B0C23
:10241000001910BC59411304120CC01851416144F9
:102420007047000010B50148FFF7B6FEC834001031
:10243000132310B510481C78FFF7FCFE0100012C97
:102440000AD003DD80220D4800F044F80C48FFF765
:10245000E9FE0C4B186010BD084C5422200000F01F
:1024600039F82200084980322368002B00D121600E
:1024700004349442F8D1E9E753460000300E0020BE
:102480004C3300002C0E00202524001010B5040051
:1024900000F09EFA002804D0034B04199C4200D897
:1024A00010BD0248FFF778FE0000042058350010E8
:1024B00010B500F097FA10BD01480421014B1847F0
:1024C0006003002045220010014B1B6818470000E4
:1024D00060030020014B5B68184700006003002088
:1024E000F0B5C64600B5437D07000D001600002B71
:1024F00038D0002A2EDD00216A1E90466A5C037DDA
:102500004C1C00200A2A0CD0A64216D043461B5D64
:1025100021000D3B5A4253416A5CDBB24C1C0A2A33
:10252000F2D1002BF0D1884217DB022110483B6822
:102530009847A64207D02000E8E7864203DD311A1B
:102540003B6828189847AD19013D2B780D3B5A423E
:1025500053413B7580BCB846F0BD091A3B6828184A
:102560009847E2E70368110028009847F2E7C04661
:10257000FC3F0010F0B5CE46474680B583B06B46B1
:102580000600DD1D2870FFF7E3F800231A4A121831
:102590004B41802109068B4202D30122174B524244
:1025A00017490800884600F07BFF164B81461C68DF
:1025B000002C14D0144F02E02469002C0FD02368A3
:1025C000002BF9D03B68002B01D0A342F4D12000AE
:1025D00001222900FFF784FF2469002CEFD14B462C
:1025E000002B05D1300003B0C0BCB946B046F0BDE9
:1025F000404600F045FFF5E740420F00FFFFFF7F38
:10260000D8080020E80D0020F00D0020F0B5DE46CF
:1026100057464E464546E0B585B0070000F0B4FD8C
:102620000600FFF795F800232B4A12184B41802132
:1026300009068B4202D30122284B52422849080046
:102640008B4600F02DFF274B01901C689A46002C0A
:102650003BD0254B984602ABDD1D0A23994602E08C
:102660002469002C17D02368002BF9D043461B683F
:10267000002B01D09C42F3D1200032003900FFF73B
:102680002FFF4B462000012229002B70FFF728FF67
:102690002469002CE7D1019B002B18D153461C68FC
:1026A000002C06D06368002B0BD098472469002CBF
:1026B000F8D1300005B0F0BCBB46B246A946A046F2
:1026C000F0BD2469002CEDD1F3E70028F1D0584685
:1026D00000F0D6FEE2E7C04640420F00FFFFFF7F5A
:1026E000D8080020E80D0020F00D002010B50248A9
:1026F00000F004F810BDC046240E002010B588B0CC
:1027000004000D2200216846FFF7DEFE0D220021A5
:1027100004A8FFF7D9FE4B236A466846137004A944
:102720000D2200F0A5FE1521082220006944FFF7C4
:10273000D1FE08B010BDC04610B5064B064C82B0A5
:102740000100009300220B232000FEF70FFA02B0D5
:1027500010BDC046A8350010440F002003001149E9
:10276000820110B554182068D90241400E4801403A
:10277000802040012043016001209840A0240B4BA1
:10278000E40518600A4B802118600A4B4904E050A8
:10279000094B9C46624413680B42FCD18023DB004A
:1027A000E05010BD100000500178000004340050CB
:1027B00014340050440400000C000050F8B5DE460C
:1027C00057464E4645468346E0B505200C00FFF7C8
:1027D000D7FB0600600821008019FFF77DFD43004C
:1027E00098468044070005214046FFF775FD3B1AD7
:1027F0009A46204B8146700080199C4234D81E496D
:10280000FFF76AFD451C5B461C6800230422E36653
:1028100023680120534002321A4080235B01234386
:102820001A605346E3614B46236243464F2B03D95C
:1028300050214046FFF750FDA023E050E36F2200F7
:102840005D4080237C322D045B0113432D0C1D6001
:10285000012339003000E366FFF73EFDF0BCBB46C4
:10286000B246A946A046F8BD0449FFF735FD451C10
:10287000C9E7C0463F420F008096980040787D012E
:102880000F4A70B5821A531E9A410E4BD20008327D
:102890001A600D4B0D4C1A601500A3689D432B1E4A
:1028A000FAD166240268FF340571D5661460633C72
:1028B0008833FF3CD5639563D450FFF77FFF70BD2D
:1028C0007803002000E0004000F0004000C000401D
:1028D000F0B557464E46DE4645468446E0B583B0E1
:1028E0001F000CAB18786346914600221B680190CC
:1028F000DA6601325960DA66002F4FDD7A1E9046A3
:102900006246127901269202802493463A0046409C
:10291000760280253700002046461021A2469046C8
:10292000AD00841B624254414A4664423C400094DC
:102930005C46125C2243009C22431A615A6B11428E
:10294000FCD052469C58002C10D1B04221D000221D
:10295000013093468045E4D16346019A1A7103B071
:10296000F0BCBB46B246A946A046F0BD5A6D012256
:1029700093465A6B2A42FCD01A6E5A46002AE6D079
:10298000002C03D0E30701D42407E5D40220404201
:10299000E2E7019A002ADAD19346EAE70020DBE772
:1029A000931E10B50C00222B0DD80A2A04D021004A
:1029B00000F014FB200010BD0028F8DA2D2340425F
:1029C0000B700131F4E7002300200B70F3E7C046E1
:1029D00010B5034B0100186800F00EF810BDC0469A
:1029E0009007002010B5034B0100186800F054FC5C
:1029F00010BDC04690070020F0B54E464546DE4665
:102A00005746E0B50D000B35060085B0162D27D8CA
:102A1000102900D9DAE000F0D1FA1025182302219C
:102A2000C74FFB181A005C68083A944200D146E18F
:102A300003226368A1689343E268CA609160012140
:102A4000E3185A6830000A435A6000F0BFFA2000C9
:102A5000083005B0F0BCBB46B246A946A046F0BD62
:102A600007239D4300D5B1E0A94200D9AEE000F0B4
:102A7000A5FAFC235B009D4200D29AE1690A00D1CD
:102A8000A8E0042900D94FE138239846A9098844D1
:102A90003931CB00082252429446A94FFB189C447E
:102AA0006346DC68A44514D0032399460B006146B5
:102AB0009C4607E0E068002A00DBFAE0814200D192
:102AC000FBE004004A46636893435A1B0F2AF1DD7A
:102AD00041463A003C690832944200D1D8E00320D4
:102AE00063688343581B0F2800DD66E13A617A6111
:102AF0000028A4DA7A68904680229200934200D39C
:102B0000E3E0DA0858090123834040461843804631
:102B1000D300DB199A687860E360A2609C60D4609F
:102B200001208B10984040455CD8434603420AD1AF
:102B300003239943434640000431034203D140003C
:102B400004310342FBD00323B3469C460E00B84633
:102B50000190F00040440100B246CB680BE06446AF
:102B60005A681F00A243DB68541B0F2C00DDF3E002
:102B7000002C00DB0DE19942F1D101239946CA44B2
:102B8000534608319B07E8D1032205E00368083863
:102B9000013E834200D00AE23242F7D14346019A15
:102BA0005B68934342465360019A520001929A42F5
:102BB00016D8002A06D113E004229146019ACA448D
:102BC000520001921342F7D05646C2E70C23002070
:102BD00033603EE780233F22402190469B0059E727
:102BE0005E4647460322BC68636893439946AB42FE
:102BF00002D35B1B0F2B4EDC23004B440293514B43
:102C000008201B6810335B19019300F0AFFA4E499E
:102C100003900B688B46013306D08446019B4242E9
:102C2000013B6344134001933000019900F082FAA4
:102C300003008046013300D1DDE0029B834200D9CE
:102C4000D7E0019A414B944619689A466144039A29
:102C50001960029B0800013A434500D0EAE0434670
:102C6000134200D0E6E0BB68984663464B441A0026
:102C700001231A4343465A60354B1868884200D2F4
:102C80001960344B1868884200D219604446B4E099
:102C90007B68984644E701222900134311436519D4
:102CA00061603000BD606B6000F090F9200008307A
:102CB000CFE6A268D0608260C1E6614609E7DC68C1
:102CC0000231A34200D104E7B2E65A0A042A00D82E
:102CD00088E0142A00D90FE110005B3082465C3294
:102CE000D200082040428446BA1894446246926852
:102CF0000B308146944500D1E5E00800A2466146CC
:102D0000844602E09268914204D04C465068A04349
:102D10009842F7D8D368614654469C466346A26001
:102D2000E3609C60D460FBE6142973D9542900D970
:102D3000EBE06E239846290B88446F31CB00A9E65F
:102D400088030020540B002080030020240B002067
:102D50004C0B0020500B0020BA46012051468446FF
:102D60004919054350464560856847466046EB6013
:102D70005E469D605346396179612043083748605B
:102D8000CF6030008F609C5000F020F95046083032
:102D90005FE6BA4601205E465244516801435160E5
:102DA000BA683000D3609A6000F010F9380008303B
:102DB0004FE62B00E908083332E661198846012105
:102DC0008C460D434146656039617961CA608A600D
:102DD000624602434A60E050300000F0F7F82000FD
:102DE000083036E69A091000393238308246D2006F
:102DF00077E7BC4214D0BC68626803239A43531B34
:102E0000AA4202D30F2B00DD45E7300000F0DEF8C8
:102E100000201EE65B23984688445C31CB0039E6EF
:102E2000644B9A461868019B9C4653466044186060
:102E3000039B5A1E5B461B68013371D043460299BF
:102E40005B1A51461B180B60072341464046194048
:102E50000291184240D00398013384465B1A0199CD
:102E6000984441440191634411405B1A1A40110097
:102E70003000934600F05EF9431C78D04346C01AF8
:102E800003005B44019353461968012059441960BB
:102E90004346019ABB6002435A60BC4200D1EBE654
:102EA0004B460F2B40D907220C3B934362680240EC
:102EB00005201A436260E218506090600F2B4BD8D7
:102EC00043465A68D8E6534698100123834040464B
:102ED00018438046786021E7019B039943441340DF
:102EE000CB1A1A4011003000934600F023F9431C1E
:102EF000C4D100239B46C6E7542A18D81A0B1000E9
:102F00006F326E308246D200EBE6AA235B00994214
:102F100018D8DD3B9846E90B88447831CB00B9E5F9
:102F20005B46414619608FE7434658606DE7AA202B
:102F30004000824226D8DA0B100078327730824681
:102F4000D200CEE61C4B994226D87C239846A90C89
:102F500088447D31CB009DE521003000083100F030
:102F60009BF953461968BB6898465A6884E6019AEB
:102F7000029B94464246083B63449B1A01930023FC
:102F80009B4680E70C4882420CD89A0C10007D3298
:102F90007C308246D200A4E6FE237E227F2190462A
:102FA0009B0077E5FE227E209200824699E643460A
:102FB0005B68F9E5240B00205405000010B50248B9
:102FC00000F0D0F810BDC046200B002010B502481C
:102FD00000F0CAF810BDC046200B0020F0B54746EF
:102FE000CE4680B58BB0E846170042461A4B050026
:102FF0000C0043CB43C243CB43C243CB43C21B78F9
:103000001370BB1E222B22D8631E0026994628006F
:103010003900FFF761F94246525C494633000136F8
:103020008A552A0005009742F1D90022A255002BAB
:1030300007D0A15CE05CA054E1540132013B9A420C
:10304000F7DB20000BB0C0BCB946B046F0BD002392
:1030500000202370F6E7C046C83500100B0003437C
:1030600070B506009B070ED1032A0CD9114D04E060
:10307000043A043110C6032A05D90C680E4BE31834
:10308000A3432B42F4D03300002406E00D5D013A47
:10309000355501330134002D02D0002AF6D170BD20
:1030A00000219C18002AFAD019700133A342FBD1E9
:1030B000F5E7C04680808080FFFEFEFE034B10B522
:1030C0001A680123503200F003F810BD9007002069
:1030D000F0B5002826D0070038000C00067801372C
:1030E00002E00134AE4214D02578002DF9D1002E33
:1030F0001DD03E000B003578013702E00133002C73
:10310000F7D01C78A542F9D10023002D06D1136019
:10311000F0BD002BE0D117600370F9E700213B0000
:103120003170F4E710680028D5D10020F0E70020C6
:103130001660EDE7002370B5064C0500080023601B
:10314000FFF70CF8431C00D070BD2368002BFBD0A8
:103150002B60F9E7EC0D0020014B18687047C04662
:10316000900700207047C0467047C046802310B5C6
:103170005B01082801D1180010BDFFF7EDFF1623F1
:103180000360173BF7E7C04610B583070AD003007A
:10319000032102E001330B4205D01A78002AF9D14D
:1031A000181A10BD030019680C4A0D4C8A188A437E
:1031B00022420FD15968094A04338A188A432242AD
:1031C00008D15968054A04338A188A432242F1D04B
:1031D00000E001331A78002AFBD1E1E7FFFEFEFE92
:1031E00080808080F0B5C646060000B508200D003E
:1031F000FFF7BCFF04003000FFF7E0FE234B210087
:1032000098469B685F6803239F4338001138401B32
:103210000019FFF761F8451E6543AC4208DC002148
:103220003000FFF787FF43469B68DB19984206D0C2
:103230003000FFF7CBFE002080BCB846F0BD300068
:103240006942FFF777FF01300ED0012243467F1B12
:103250009B6817430E4A5F60136830005B1B136066
:10326000FFF7B4FE0120E7E700213000FFF762FF1F
:1032700043469A68831A0F2BDADD064C044924680A
:10328000001B086001210B435360D1E78803002035
:10329000240B002080030020F8B5CE4647460500E9
:1032A0000C0080B5002957D0FFF788FE01232100CC
:1032B0009C46083948686246030003249343CF18AC
:1032C0007A68654EA243B468BC4200D170E0BC1875
:1032D000A14664467A60044221D10868091A1B1885
:1032E000886880464846406820403400083481465B
:1032F000A04551D04046CC68C460A0604846002834
:1033000011D19B185548BA68824200D17FE0F86815
:10331000D060826001221A434A60CB5007E04846E1
:1033200040682042EDD062461A434A603B608022EA
:103330009200934214D2DA0858090123834070683E
:1033400003437360D3009B199A68CB608A609960CD
:10335000D1602800FFF73AFEC0BCB946B046F8BDC0
:103360005C0A042C3DD89C09200039343830E40034
:1033700034192268083C0327944203D140E0926844
:10338000944203D05068B8439842F8D8D468CC60CF
:103390008A60A160D160DCE7002858D1B868D218F3
:1033A000FB68C3609860634613434B608A50D0E764
:1033B0009A186346034206D10B68C91A8868D21866
:1033C000CB68C3609860012313434B60244BB1600A
:1033D0001B689342BDD8234B28001968FFF702FFF2
:1033E000B7E7142C07D9542C1AD81C0B20006F34C3
:1033F0006E30E400BCE720005C345B30E400B7E7EB
:10340000012380108340706803437360BFE7D1607D
:103410009160CA608A6001221A434A60CB5098E7E3
:10342000AA225200944205D8DC0B20007834773071
:10343000E4009DE70C4A944205D89C0C20007D34A2
:103440007C30E40094E7FE247E20A40090E76246EE
:103450001A434A603B607CE7880300209003002009
:1034600084030020540B002054050000F8B5C0462A
:1034700001B40248844601BC604700BFF901002046
:1034800001B40248844601BC604700BF5D010020D2
:1034900001B40248844601BC604700BFB902002065
:1034A00001B40248844601BC604700BFC10000204F
:1034B000200000006573636F6C686120426F746167
:1034C0006F2042007061726100000000566F6C74E2
:1034D00061722043726973746F20410020202020A4
:1034E0002020456E747265676173000041706572DB
:1034F000746520426F74616F2041000048617264FE
:103500007761726520616C61726D20256420616C49
:10351000726561647920636C61696D6564000000A7
:103520000A2A2A2A2050414E4943202A2A2A0A00E0
:103530000A00000048617264206173736572740050
:103540006D697373696E6720646F75626C65206660
:10355000756E6374696F6E004F7574206F66206DB1
:10356000656D6F727900000052656C65617365006E
:10357000626F6F74325F773235713038300000001F
:10358000302E3100312E352E310000007069636F0E
:103590005F770000627574746F6E0000466562208C
:1035A00031362032303235004E6F20444D41206399
:1035B00068616E6E656C7320617265206176616909
:1035C0006C61626C6500000030313233343536375F
:1035D00038396162636465666768696A6B6C6D6ED1
:1035E0006F707172737475767778797A0000000065
:1035F000453337204165726F5F41204165726F5FCF
:1036000044205253323320454E54525F4143454982
:103610005441203435303020333020416C746120E7
:1036200030353320443233204469737020373520DD
:1036300034302033302031323020343520413231A3
:103640002042726173696C2034203630203135207D
:103650004D4F5449564F5F4C4F474953544943418E
:103660005F5F5F5F5F204D4C3331204165726F5F5C
:1036700042204165726F5F45203132302032353053
:103680002053696D20466F72746520536F6C204320
:10369000353420303835203037352030383020353B
:1036A00030303030302033352044373620416C7490
:1036B00061204261697861204573746176204E65AE
:1036C0006E68756D20453632204165726F5F43200C
:1036D0004165726F5F42205253313920454E54523A
:1036E0005F5245435553412033323030203430202F
:1036F0004D65646961203034322044383220456D94
:10370000566F6F2038322035352033352031303533
:10371000203530204139302042726173696C20338A
:10372000203535203138204D4F5449564F5F434C9A
:10373000494D415F5F5F5F5F5F5F5F5F204D4C346E
:1037400035204165726F5F44204165726F5F412093
:1037500031313520313830204E616F20467261633F
:103760006F20436875766120433637203038392022
:103770003037322030373820343530303030203256
:103780003820443538204D6564696120416C74618E
:1037900020496E73746176204F70636F65732045A6
:1037A0003439204165726F5F44204165726F5F411B
:1037B000205253313520454E54525F4143454954C0
:1037C0004120323730302035302042616978612025
:1037D0003033382044373120446973702038382022
:1037E00035302034352031313020353520413131EC
:1037F0002042726173696C203220373020323020D1
:103800004D4F5449564F5F45434F4E4F4D494341ED
:103810005F5F5F5F5F204D4C3737204165726F5FA0
:1038200045204165726F5F4320313038203230309F
:103830002053696D20466F727465204E75626C610D
:10384000646F20433839203039312030373420300C
:10385000383320343830303030203330204433395E
:10386000204261697861204D656469612045737407
:103870006176204E656E68756D204538352041654E
:10388000726F5F45204165726F5F4420525332353D
:1038900020454E54525F52454355534120343930F0
:1038A0003020333520416C7461203036302044396B
:1038B0003620456D566F6F20383020343220323834
:1038C000203132352034302041333320427261734D
:1038D000696C2035203635203232204D4F54495600
:1038E0004F5F424154455249415F5F5F5F5F5F5F99
:1038F000204D4C3232204165726F5F41204165722C
:103900006F5F422031343020323330204E616F20DF
:10391000467261636F2056656E746F2043373320A3
:10392000303838203037302030383220343730309B
:1039300030302032392044313820416C74612041CC
:103940006C746120496E73746176204F70636F658B
:103950007320453132204165726F5F4220416572AC
:103960006F5F43205253323020454E54525F4143E3
:10397000454954412033313030203435204D656481
:103980006961203034352044363420446973702016
:103990003737203438203338203131352034322045
:1039A0004135352042726173696C203120353020F9
:1039B0003137204D4F5449564F5F434F414C495A80
:1039C0004143414F5F5F5F5F5F204D4C3834204182
:1039D00065726F5F43204165726F5F442031333001
:1039E000203236302053696D20466F727465205343
:1039F0006F6C204332362030383620303736203056
:103A000038312035313030303020333420443937AC
:103A1000204D656469612042616978612045737455
:103A20006176204E656E68756D20453333204165A3
:103A3000726F5F41204165726F5F45205253323291
:103A400020454E54525F5245435553412033363042
:103A50003020333020416C746120303539204434BB
:103A60003720456D566F6F2038332035322033377D
:103A70002031333520353020413636204272617393
:103A8000696C2036203638203234204D4F54495648
:103A90004F5F52455354524943414F5F5F5F5F5FF1
:103AA000204D4C3633204165726F5F422041657274
:103AB0006F5F432031323220323130204E616F202F
:103AC000467261636F204368757661204339322006
:103AD00030393020303733203037392035323030EC
:103AE00030302033322044383120416C7461204121
:103AF0006C746120496E73746176204F70636F65DA
:103B00007320453538204165726F5F4320416572EF
:103B10006F5F42205253313720454E54525F41432C
:103B200045495441203432303020343020426169DC
:103B3000786120303431204432352044697370205C
:103B4000373920353320333220313330203435209B
:103B50004134342042726173696C2034203538203E
:103B60003231204D4F5449564F5F4C4F47495354C3
:103B70004943415F5F5F5F5F204D4C3931204165B4
:103B8000726F5F44204165726F5F41203131382090
:103B90003139302053696D20466F727465204E753F
:103BA000626C61646F204333352030383720303702
:103BB0003120303830203436303030302032372029
:103BC000443232204D65646961204D65646961202D
:103BD0004573746176204E656E68756D2045373487
:103BE000204165726F5F44204165726F5F452052CE
:103BF00053313820454E54525F524543555341206E
:103C000032383030203530204D65646961203033E2
:103C1000372044333020456D566F6F2038312034C3
:103C200037203336203132302034322041323020B8
:103C300042726173696C2032203633203139204D55
:103C40004F5449564F5F414C5445524E415449568A
:103C5000415F5F5F204D4C3535204165726F5F4598
:103C6000204165726F5F432031323520323430207D
:103C70004E616F20467261636F2056656E746F20CF
:103C80004335302030383920303737203038342031
:103C900034393030303020333120443434204261E4
:103CA00069786120416C746120496E73746176207B
:103CB0004F70636F657320453937204165726F5FC0
:103CC00042204165726F5F44205253323420454E8A
:103CD00054525F41434549544120333430302033FE
:103CE0003020416C74612030353520443933204414
:103CF000697370203738203431203334203131302B
:103D0000203430204131322042726173696C20339B
:103D1000203732203233204D4F5449564F5F4543B0
:103D20004F4E4F4D4943415F5F5F5F5F204D4C34C5
:103D300032204165726F5F41204165726F5F4320A1
:103D4000313238203232302053696D20466F727420
:103D50006520536F6C2043363120303835203037A2
:103D60003520303830203533303030302033362075
:103D700044363920416C7461204261697861204584
:103D800073746176204E656E68756D204530352000
:103D90004165726F5F45204165726F5F41205253EC
:103DA000323120454E54525F5245435553412034E1
:103DB0003730302034352042616978612030333922
:103DC0002044353920456D566F6F20383420343902
:103DD00020333920313430203535204137372042E7
:103DE000726173696C2035203637203235204D4F93
:103DF0005449564F5F434C494D415F5F5F5F5F5F82
:103E00005F5F5F204D4C3733204165726F5F42200A
:103E10004165726F5F442031353020323730204E9B
:103E2000616F20467261636F20436875766120433D
:103E3000383020303932203037382030383720358C
:103E4000343030303020333320443131204D6564FC
:103E5000696120416C746120496E73746176204FF2
:103E600070636F6573000000C8340010DC3400100C
:103E7000C8340010C8340010C8340010C834001012
:103E8000C8340010EC3400100000000000000000F6
:103E900078141211121478007F49494949497F006A
:103EA0007E414141414141007F41414141417E00CC
:103EB0007F494949494949007F0909090901010028
:103EC0007F414141515173007F08080808087F0075
:103ED0000000007F000000002141413F010101007E
:103EE000007F0808142241007F40404040404000CD
:103EF0007F02040804027F007F02040810207F0074
:103F00003E41414141413E007F11111111110E000E
:103F10003E41414951617E007F11111131510E0026
:103F200046494949493000000101017F0101010072
:103F30003F40404040403F000F10204020100F0005
:103F40007F20100810207F0000412214142241001D
:103F50000102047804020100416159454341000017
:103F60003E41414941413E000000427F4000000087
:103F700030494949494600004949494949493600BB
:103F80003F202078202000004F4949494930000057
:103F90003F4848484848300001010161310D0300A5
:103FA00036494949494936000609090909097F0086
:103FB000AE200040A1A83FC8D300DA12D580D9F1C5
:103FC000DB3081FFA4A68D142EAF000006005250F6
:103FD000D3F075426835001006005250E182887FA8
:103FE00070350010060052503ABCA91180350010FF
:103FF00006005250BBFF3CB68C3500100D0A000085
:1040000000202020202020202020282828282820A8
:1040100020202020202020202020202020202020A0
:104020002088101010101010101010101010101008
:1040300010040404040404040404041010101010F8
:1040400010104141414141410101010101010101C2
:104050000101010101010101010101011010101014
:104060001010424242424242020202020202020294
:1040700002020202020202020202020210101010E8
:104080002000000000000000000000000000000010
:104090000000000000000000000000000000000020
:1040A0000000000000000000000000000000000010
:1040B0000000000000000000000000000000000000
:1040C00000000000000000000000000000000000F0
:1040D00000000000000000000000000000000000E0
:1040E00000000000000000000000000000000000D0
:1040F00000000000000000000000000000000000C0
:0441000000000000BB
:10410400CC3F0010D83F0010E43F0010880200109C
:10411400F03F001094020010A0020010AC02001046
:10412400F0B5C646150000B504001E000268EFF3A2
:10413400108172B61368002BFCD0BFF35F8F042389
:10414400E356002B2DDB2268BFF35F8F0020106045
:1041540081F31088D0221206127852B290469A4205
:1041640003D1002080BCB846F0BD00270BE02368D3
:10417400BFF35F8F1F6081F310882800310000F0C7
:10418400CFF80028EDD12268EFF3108172B61368DE
:10419400002BFCD0BFF35F8F23797F2BE7D94346F5
:1041A40002E0D0231B061B6823712368BFF35F8FD3
:1041B40000221A6081F310880120D3E70268EFF32C
:1041C400108172B61368002BFCD0BFF35F8FFF23FE
:1041D40003710368BFF35F8F00221A6081F31088B4
:1041E40040BF704710B5084C2378002B0AD18023B8
:1041F400064807495B051A68C25004338B42FAD15A
:104204000123237010BDC046460F0020A80C0010E7
:104214000001001010B5014B984710BDA90C0020F7
:10422400034B1A68C0239B009343024A13607047F0
:104234000C8001400C900140054B1A6880239B00C0
:104244005340C02292001340024A13607047C04694
:104254000C8001400C9001401423F0B5D6464F4623
:1042640046469A46814618880433C0B598460E00DF
:104274001B8826491400984753460700188843466C
:1042840023491B889847534605001888434621490B
:104294001B8898478046FFF7A5FFB847A847FFF754
:1042A400CBFF221E20D0C02108270220490511E09F
:1042B400002C14D0131B0D2B20D9002D0AD0230061
:1042C400002A05D00B6E013A3370130001362343E4
:1042D400002B09D03D008B6A1D401842E8D1002D07
:1042E400EDD123001343F5D1FFF79AFFC047FFF741
:1042F40091FFE0BCBA46B146A846F0BD4B461B78D8
:10430400013C0B6601239C46E144E8E74946000072
:1043140045580000464300007047C04600000000B6
:1043240001B40248844601BC604700BFB1150010C7
:104334001000000000000000000001000000000068
:104344000000000000000200000000000000000067
:104354000000030000000000000000000000FF0057
:104364000000000001B5486801318E4600477046E0
:1043740009380149884701BD890E00103403002023
:104384000000000020090020A80D0020000000000B
:1043940000000000B80D0020000000000000000034
:1043A40010000000000000000000000000000000F9
:1043B400503300004C3300005433000052330000EB
:1043C4004D5300004D4300005334000043340000BB
:1043D4000080044000000000004004400000000091
:1043E400FFFFFFFF000002000000000000000000CB
:1043F40088030020880300209003002090030020FD
:104404009803002098030020A0030020A0030020AC
:10441400A8030020A8030020B0030020B00300205C
:10442400B8030020B8030020C0030020C00300200C
:10443400C8030020C8030020D0030020D0030020BC
:10444400D8030020D8030020E0030020E00300206C
:10445400E8030020E8030020F0030020F00300201C
:10446400F8030020F80300200004002000040020CA
:104474000804002008040020100400201004002078
:104484001804002018040020200400202004002028
:1044940028040020280400203004002030040020D8
:1044A4003804002038040020400400204004002088
:1044B4004804002048040020500400205004002038
:1044C40058040020580400206004002060040020E8
:1044D4006804002068040020700400207004002098
:1044E4007804002078040020800400208004002048
:1044F40088040020880400209004002090040020F8
:104504009804002098040020A0040020A0040020A7
:10451400A8040020A8040020B0040020B004002057
:10452400B8040020B8040020C0040020C004002007
:10453400C8040020C8040020D0040020D0040020B7
:10454400D8040020D8040020E0040020E004002067
:10455400E8040020E8040020F0040020F004002017
:10456400F8040020F80400200005002000050020C5
:104574000805002008050020100500201005002073
:104584001805002018050020200500202005002023
:1045940028050020280500203005002030050020D3
:1045A4003805002038050020400500204005002083
:1045B4004805002048050020500500205005002033
:1045C40058050020580500206005002060050020E3
:1045D4006805002068050020700500207005002093
:1045E4007805002078050020800500208005002043
:1045F40088050020880500209005002090050020F3
:104604009805002098050020A0050020A0050020A2
:10461400A8050020A8050020B0050020B005002052
:10462400B8050020B8050020C0050020C005002002
:10463400C8050020C8050020D0050020D0050020B2
:10464400D8050020D8050020E0050020E005002062
:10465400E8050020E8050020F0050020F005002012
:10466400F8050020F80500200006002000060020C0
:10467400080600200806002010060020100600206E
:10468400180600201806002020060020200600201E
:1046940028060020280600203006002030060020CE
:1046A400380600203806002040060020400600207E
:1046B400480600204806002050060020500600202E
:1046C40058060020580600206006002060060020DE
:1046D400680600206806002070060020700600208E
:1046E400780600207806002080060020800600203E
:1046F40088060020880600209006002090060020EE
:104704009806002098060020A0060020A00600209D
:10471400A8060020A8060020B0060020B00600204D
:10472400B8060020B8060020C0060020C0060020FD
:10473400C8060020C8060020D0060020D0060020AD
:10474400D8060020D8060020E0060020E00600205D
:10475400E8060020E8060020F0060020F00600200D
:10476400F8060020F80600200007002000070020BB
:104774000807002008070020100700201007002069
:104784001807002018070020200700202007002019
:1047940028070020280700203007002030070020C9
:1047A4003807002038070020400700204007002079
:1047B4004807002048070020500700205007002029
:1047C40058070020580700206007002060070020D9
:1047D4006807002068070020700700207007002089
:1047E4007807002078070020800700208007002039
:1047F400980700200000000000000000580B002073
:10480400C00B0020280C0020000000000000000065
:104814000000000000000000000000000000000094
:104824000000000000000000000000000000000084
:104834000000000000000000000000000000000074
:104844000000000000000000000000000000000064
:104854000000000000000000000000000000000054
:104864000000000000000000000000000000000044
:104874000000000000000000000000000000000034
:104884000000000000000000000000000000000024
:1048940001000000000000000E33CDAB34126DE6C1
:1048A400ECDE05000B00000000000000000000002A
:1048B40000000000000000000000000000000000F4
:1048C40000000000000000000000000000000000E4
:1048D40000000000000000000000000000000000D4
:1048E40000000000000000000000000000000000C4
:1048F40000000000000000000000000000000000B4
:1049040000000000000000000000000000000000A3
:104914000000000000000000000000000000000093
:104924000000000000000000000000000000000083
:104934000000000000000000000000000000000073
:10494400B924001015220010312300103124001066
:08495400E5020010ED26001041
:04000005100001E9FD
:00000001FF
